:1000000001308A00F0290000FF00030E8301A100E7
:100010000A08A0008A010408A2007708A300780853
:10002000A4007908A5007A08A600831383120B1E8A
:100030001B288B1832288C308400801E21288C1AB3
:100040003528220884002308F7002408F800250832
:10005000F9002608FA0020088A00210E8300FF0E0E
:100060007F0E09008A110A1244288A110A123828C0
:100070008C1E40288C1E3A281A08B1003108AF00A7
:100080008C128A110A122128B00A3008013C031C84
:10009000B0018B108A110A122128003083168700C4
:1000A0008312B200831688008801831288013211FE
:1000B000320883168700831207110C3097008316CD
:1000C0009B019C0101309D008312B21032088316FF
:1000D0008700831287100C309D000030F80006382E
:1000E0009200F93083169200831295019B01C03073
:1000F0008B040B168A110A12152A0130831686000A
:100100008601FE30831286001030F700F70B862838
:100110000000FF30831686008312A701A801A90101
:10012000AA01AB01AC01942895280000A70A831608
:10013000861483128618A128A808031DA128270861
:10014000A8008316061583120619AB28A908031DFB
:10015000AB282708A9008316861583128619B528AF
:10016000AA08031DB5282708AA00831606168312BD
:10017000061ABF28AB08031DBF282708AB0083164B
:1001800086168312861AC928AC08031DC9282708B9
:10019000AC0093282808FA3C0318E0282908F93C09
:1001A000031CE0282A08F93C031CE0282B08F93C32
:1001B000031CE0282C08FA3C0318E0280130AD00AD
:1001C0002808F93C031CF6282908F93C031CF628EA
:1001D0002A08F93C031CF6282B08FA3C0318F628D9
:1001E0002C08FA3C0318F6280230AD002808FA3C27
:1001F00003180C292908FA3C03180C292A08F93C91
:10020000031C0C292B08F93C031C0C292C08F93C75
:10021000031C0C290330AD008A110A12192A2D087B
:10022000013A03191A29033A03193129013A03192A
:10023000492960291B291C290000831608108312F4
:1002400008148316881083128810323095008316A4
:1002500008118312081583168811831288119B00D8
:1002600060293229332900008316081083120814EC
:100270008316881083128810503095008316081159
:100280008312081583168811831288111E309B0073
:1002900060294A294B29000083160810831208148C
:1002A00083168810831288101E309500831608115B
:1002B00083120815831688118312881150309B0011
:1002C0008A110A121A2AC0308B04831601138C1665
:1002D00083122F08313C031D6F290130AE002F0817
:1002E000323C031D75290230AE002F08333C031D3C
:1002F0007B290330AE002F08343C031D81290430D4
:10030000AE0001302E02FC3E0318E529043EE82928
:1003100089298A290000831608108312081483167D
:1003200088108312881032309500831608118312CA
:10033000081583168811831288119B00E529A029CE
:10034000A1290000831688108312881483160810D0
:100350008312081032309500831688118312881595
:1003600083160811831208119B00E529B729B829C3
:100370000000831608108312081483168810831255
:1003800088105030950083160811831208158316C3
:100390008811831288111E309B00E529CF29D029AE
:1003A0000000831608108312081483168810831225
:1003B00088101E30950083160811831208158316C5
:1003C00088118312881150309B008A110A121C2A4E
:1003D0000A148A100A11820788299F29B629CE2972
:1003E00003081F398300831603178715083003138A
:1003F000990002309A00A63098009030831298003D
:10040000B001FF30B200831603170908C039890014
:1004100003131F129F1200300317880083128701F5
:1004200088018901831303134D28B008031D1B2A7B
:0C0430007D280F291C2A6329142A630070
:04400E00E22FFF3F5F
:00000001FF
;PIC16F887
;CRC=362B  CREATED="20-Dec-19 19:48"
